{
  "_format": "hh-sol-artifact-1",
  "contractName": "Lottery",
  "sourceName": "contracts/Lottery.sol",
  "abi": [
    {
      "inputs": [
        {
          "internalType": "uint256",
          "name": "_price",
          "type": "uint256"
        },
        {
          "internalType": "address",
          "name": "_governance",
          "type": "address"
        }
      ],
      "stateMutability": "nonpayable",
      "type": "constructor"
    },
    {
      "anonymous": false,
      "inputs": [
        {
          "indexed": false,
          "internalType": "address",
          "name": "winner",
          "type": "address"
        }
      ],
      "name": "AnnounceWinner",
      "type": "event"
    },
    {
      "anonymous": false,
      "inputs": [
        {
          "indexed": true,
          "internalType": "bytes32",
          "name": "id",
          "type": "bytes32"
        }
      ],
      "name": "ChainlinkCancelled",
      "type": "event"
    },
    {
      "anonymous": false,
      "inputs": [
        {
          "indexed": true,
          "internalType": "bytes32",
          "name": "id",
          "type": "bytes32"
        }
      ],
      "name": "ChainlinkFulfilled",
      "type": "event"
    },
    {
      "anonymous": false,
      "inputs": [
        {
          "indexed": true,
          "internalType": "bytes32",
          "name": "id",
          "type": "bytes32"
        }
      ],
      "name": "ChainlinkRequested",
      "type": "event"
    },
    {
      "inputs": [],
      "name": "enter",
      "outputs": [],
      "stateMutability": "payable",
      "type": "function"
    },
    {
      "inputs": [],
      "name": "fulfill_alarm",
      "outputs": [],
      "stateMutability": "nonpayable",
      "type": "function"
    },
    {
      "inputs": [
        {
          "internalType": "uint256",
          "name": "randomness",
          "type": "uint256"
        }
      ],
      "name": "fulfill_random",
      "outputs": [],
      "stateMutability": "nonpayable",
      "type": "function"
    },
    {
      "inputs": [],
      "name": "lotteryId",
      "outputs": [
        {
          "internalType": "uint256",
          "name": "",
          "type": "uint256"
        }
      ],
      "stateMutability": "view",
      "type": "function"
    },
    {
      "inputs": [
        {
          "internalType": "uint256",
          "name": "",
          "type": "uint256"
        }
      ],
      "name": "lottery_duration",
      "outputs": [
        {
          "internalType": "uint256",
          "name": "",
          "type": "uint256"
        }
      ],
      "stateMutability": "view",
      "type": "function"
    },
    {
      "inputs": [],
      "name": "lottery_state",
      "outputs": [
        {
          "internalType": "enum Lottery.LOTTERY_STATE",
          "name": "",
          "type": "uint8"
        }
      ],
      "stateMutability": "view",
      "type": "function"
    },
    {
      "inputs": [
        {
          "internalType": "uint256",
          "name": "",
          "type": "uint256"
        }
      ],
      "name": "players",
      "outputs": [
        {
          "internalType": "address payable",
          "name": "",
          "type": "address"
        }
      ],
      "stateMutability": "view",
      "type": "function"
    },
    {
      "inputs": [],
      "name": "price",
      "outputs": [
        {
          "internalType": "uint256",
          "name": "",
          "type": "uint256"
        }
      ],
      "stateMutability": "view",
      "type": "function"
    },
    {
      "inputs": [
        {
          "internalType": "uint256",
          "name": "duration",
          "type": "uint256"
        }
      ],
      "name": "start_new_lottery",
      "outputs": [],
      "stateMutability": "nonpayable",
      "type": "function"
    }
  ],
  "bytecode": "0x6080604052600160045534801561001557600080fd5b50604051610ded380380610ded8339818101604052604081101561003857600080fd5b81019080805190602001909291908051906020019092919050505061006161019560201b60201c565b8160098190555060016008819055506001600660006101000a81548160ff0219169083600281111561008f57fe5b021790555080600a60006101000a81548173ffffffffffffffffffffffffffffffffffffffff021916908373ffffffffffffffffffffffffffffffffffffffff160217905550600a60009054906101000a900473ffffffffffffffffffffffffffffffffffffffff1673ffffffffffffffffffffffffffffffffffffffff16632654062e306040518263ffffffff1660e01b8152600401808273ffffffffffffffffffffffffffffffffffffffff1673ffffffffffffffffffffffffffffffffffffffff168152602001915050600060405180830381600087803b15801561017657600080fd5b505af115801561018a573d6000803e3d6000fd5b50505050505061027e565b61023873c89bd4e1632d3a43cb03aaad5262cbe4038bc57173ffffffffffffffffffffffffffffffffffffffff166338cc48316040518163ffffffff1660e01b815260040160206040518083038186803b1580156101f257600080fd5b505afa158015610206573d6000803e3d6000fd5b505050506040513d602081101561021c57600080fd5b810190808051906020019092919050505061023a60201b60201c565b565b80600260006101000a81548173ffffffffffffffffffffffffffffffffffffffff021916908373ffffffffffffffffffffffffffffffffffffffff16021790555050565b610b608061028d6000396000f3fe6080604052600436106100865760003560e01c8063c251ebf211610059578063c251ebf214610155578063d0b82d7714610190578063e580f47b146101cb578063e97dcb62146101f6578063f71d96cb1461020057610086565b80631e9a5a111461008b5780635c7823ce146100a257806381447999146100f1578063a035b1fe1461012a575b600080fd5b34801561009757600080fd5b506100a061027b565b005b3480156100ae57600080fd5b506100db600480360360208110156100c557600080fd5b81019080803590602001909291905050506103db565b6040518082815260200191505060405180910390f35b3480156100fd57600080fd5b506101066103f3565b6040518082600281111561011657fe5b60ff16815260200191505060405180910390f35b34801561013657600080fd5b5061013f610406565b6040518082815260200191505060405180910390f35b34801561016157600080fd5b5061018e6004803603602081101561017857600080fd5b810190808035906020019092919050505061040c565b005b34801561019c57600080fd5b506101c9600480360360208110156101b357600080fd5b81019080803590602001909291905050506106cd565b005b3480156101d757600080fd5b506101e06107ab565b6040518082815260200191505060405180910390f35b6101fe6107b1565b005b34801561020c57600080fd5b506102396004803603602081101561022357600080fd5b8101908080359060200190929190505050610850565b604051808273ffffffffffffffffffffffffffffffffffffffff1673ffffffffffffffffffffffffffffffffffffffff16815260200191505060405180910390f35b6000600281111561028857fe5b600660009054906101000a900460ff1660028111156102a357fe5b14610316576040517f08c379a00000000000000000000000000000000000000000000000000000000081526004018080602001828103825260208152602001807f546865206c6f7474657279206861736e2774206576656e20737461727465642181525060200191505060405180910390fd5b42600b600060085481526020019081526020016000205411156103a1576040517f08c379a000000000000000000000000000000000000000000000000000000000815260040180806020018281038252601d8152602001807f546865204c6f747465727920686173206e6f7420656e6465642079657400000081525060200191505060405180910390fd5b6001600854016008819055506002600660006101000a81548160ff021916908360028111156103cc57fe5b02179055506103d961088c565b565b600b6020528060005260406000206000915090505481565b600660009054906101000a900460ff1681565b60095481565b60028081111561041857fe5b600660009054906101000a900460ff16600281111561043357fe5b146104a6576040517f08c379a000000000000000000000000000000000000000000000000000000000815260040180806020018281038252601d8152602001807f596f75206172656e27742061742074686174207374616765207965742100000081525060200191505060405180910390fd5b6000811161051c576040517f08c379a00000000000000000000000000000000000000000000000000000000081526004018080602001828103825260108152602001807f72616e646f6d2d6e6f742d666f756e640000000000000000000000000000000081525060200191505060405180910390fd5b6000600780549050828161052c57fe5b0690506007818154811061053c57fe5b9060005260206000200160009054906101000a900473ffffffffffffffffffffffffffffffffffffffff1673ffffffffffffffffffffffffffffffffffffffff166108fc479081150290604051600060405180830381858888f193505050501580156105ac573d6000803e3d6000fd5b507fcfa5d1877ae609f3a62e72e02e3fcf9d3da417038e82e660b155177beaa6b165600782815481106105db57fe5b9060005260206000200160009054906101000a900473ffffffffffffffffffffffffffffffffffffffff16604051808273ffffffffffffffffffffffffffffffffffffffff1673ffffffffffffffffffffffffffffffffffffffff16815260200191505060405180910390a1600067ffffffffffffffff8111801561065f57600080fd5b5060405190808252806020026020018201604052801561068e5781602001602082028036833780820191505090505b50600790805190602001906106a4929190610a5d565b506001600660006101000a81548160ff021916908360028111156106c457fe5b02179055505050565b600160028111156106da57fe5b600660009054906101000a900460ff1660028111156106f557fe5b14610768576040517f08c379a000000000000000000000000000000000000000000000000000000000815260040180806020018281038252601d8152602001807f63616e27742073746172742061206e6577206c6f74746572792079657400000081525060200191505060405180910390fd5b6000600660006101000a81548160ff0219169083600281111561078757fe5b0217905550804201600b600060085481526020019081526020016000208190555050565b60085481565b60095434146107bc57fe5b600060028111156107c957fe5b600660009054906101000a900460ff1660028111156107e457fe5b146107eb57fe5b6007339080600181540180825580915050600190039060005260206000200160009091909190916101000a81548173ffffffffffffffffffffffffffffffffffffffff021916908373ffffffffffffffffffffffffffffffffffffffff160217905550565b6007818154811061085d57fe5b906000526020600020016000915054906101000a900473ffffffffffffffffffffffffffffffffffffffff1681565b60028081111561089857fe5b600660009054906101000a900460ff1660028111156108b357fe5b14610926576040517f08c379a000000000000000000000000000000000000000000000000000000000815260040180806020018281038252601c8152602001807f596f75206172656e27742061742074686174207374616765207965740000000081525060200191505060405180910390fd5b600a60009054906101000a900473ffffffffffffffffffffffffffffffffffffffff1673ffffffffffffffffffffffffffffffffffffffff1663360131896040518163ffffffff1660e01b8152600401602060405180830381600087803b15801561099057600080fd5b505af11580156109a4573d6000803e3d6000fd5b505050506040513d60208110156109ba57600080fd5b810190808051906020019092919050505073ffffffffffffffffffffffffffffffffffffffff1663b37217a46008546040518263ffffffff1660e01b815260040180828152602001915050602060405180830381600087803b158015610a1f57600080fd5b505af1158015610a33573d6000803e3d6000fd5b505050506040513d6020811015610a4957600080fd5b810190808051906020019092919050505050565b828054828255906000526020600020908101928215610ad6579160200282015b82811115610ad55782518260006101000a81548173ffffffffffffffffffffffffffffffffffffffff021916908373ffffffffffffffffffffffffffffffffffffffff16021790555091602001919060010190610a7d565b5b509050610ae39190610ae7565b5090565b610b2791905b80821115610b2357600081816101000a81549073ffffffffffffffffffffffffffffffffffffffff021916905550600101610aed565b5090565b9056fea264697066735822122053d7413ff9417612389571352024422a3ad61ecccb397079d81821056303c6c364736f6c63430006060033",
  "linkReferences": {},
  "deployedLinkReferences": {}
}